S02100004175746F6D6174656449727269676174696F6E53797374656D2E73726563C2
S11300000C9434000C9449000C9449000C9449005D
S11300100C9449000C9449000C9449000C94490038
S11300200C9449000C9449000C9449000C94490028
S11300300C9449000C9449000C9449000C94490018
S11300400C9449000C9449000C9449000C94490008
S11300500C9449000C9449000C9449000C944900F8
S11300600C9449000C94490011241FBECFEFD8E032
S1130070DEBFCDBF11E0A0E0B1E0E4EDFDE002C0E1
S113008005900D92A631B107D9F70E940E020C9487
S1130090E8060C94000082E68093B80084E0809324
S11300A0BC001092B900089584EA8093BC00ECEB84
S11300B0F0E080818823ECF708958093BB0084E806
S11300C08093BC00ECEBF0E080818823ECF708958A
S11300D0992354F4089521503109E9F74F5F5F4F94
S11300E0841795071CF4089540E050E029E730E0B8
S11300F0F2CFEBEBF0E080818260808384E8809330
S1130100BC00ECEBF0E080818823ECF781E090E028
S11301100E946800EBEBF0E080818D7F808384E8AF
S11301208093BC00ECEBF0E080818823ECF7089529
S1130130EBEBF0E090819E7F908394E89093BC0079
S1130140ECEBF0E090819923ECF7EBEBF0E090819D
S11301509F70908394E89093BC00ECEBF0E0908166
S11301609923ECF7EBEBF0E09081807F892B80837F
S113017084E88093BC00ECEBF0E080818823ECF70A
S11301800E9479000895CF93C82FEBEBF0E08081B3
S11301908E7F808384E88093BC00ECEBF0E0808168
S11301A08823ECF7EBEBF0E080818F70808384E8A8
S11301B08093BC00ECEBF0E080818823ECF7EBEB60
S11301C0F0E080819C2F907F892B808384E880934A
S11301D0BC00ECEBF0E080818823ECF70E9479000E
S11301E0EBEBF0E080818F70808384E88093BC0027
S11301F0ECEBF0E080818823ECF7EBEBF0E020817E
S113020030E1C39FC0011124822B808384E8809352
S1130210BC00ECEBF0E080818823ECF70E947900CD
S1130220CF91089580E30E94980080E30E94980093
S113023080E20E94980088E20E94C3008CE00E9441
S1130240C30081E00E94C30086E00E94C30080E8EE
S11302500E94C3000895CF93C82FEBEBF0E0808198
S11302608160808384E88093BC00ECEBF0E08081C3
S11302708823ECF7EBEBF0E080818F70808384E8D7
S11302808093BC00ECEBF0E080818823ECF7EBEB8F
S1130290F0E080819C2F907F892B808384E8809379
S11302A0BC00ECEBF0E080818823ECF70E9479003D
S11302B0EBEBF0E080818F70808384E88093BC0056
S11302C0ECEBF0E080818823ECF7EBEBF0E02081AD
S11302D030E1C39FC0011124822B808384E8809382
S11302E0BC00ECEBF0E080818823ECF70E947900FD
S11302F0CF910895CF93DF93EC018881882331F067
S113030021960E942B0189918111FBCFDF91CF911E
S11303100895BC01990F880B990B0E94050320E0F6
S113032030EC4FE754E40E945B0220E030E048ECFC
S113033052E40E9491030E94CD02CB0108958F7074
S1130340806480937C00EAE7F0E087E88083808122
S113035080648083808186FDFDCF809178009091B8
S113036079000895861797075CF425B181E090E041
S113037002C0880F991F4A95E2F7822B85B9089528
S113038025B181E090E002C0880F991F4A95E2F7F9
S11303908095822385B90895EF92FF920F931F935E
S11303A0CF93DF93CDB7DEB764970FB6F894DEBF73
S11303B00FBECDBF7B019F938F9380E091E09F930D
S11303C08F938E010F5F1F4F1F930F930E94FE03A5
S11303D0C8010E947A018EE091E00E947A010F9098
S11303E00F900F900F900F900F90EA94EF2829F43C
S11303F083E091E00E947A0104C087E091E00E94CA
S11304007A0164960FB6F894DEBF0FBECDBFDF91BC
S1130410CF911F910F91FF90EF9008950E944B0090
S11304200E94540080E70E945D000E94120184B182
S1130430836084B980E00E949F018C0181E00E9466
S11304409F01EC01C8010E9489016C01CE010E9448
S113045089017C0180E80E94C3008BE091E00E9446
S11304607A0165B1617070E0C6010E94CC0180EC34
S11304700E94C30080E191E00E947A0165B1669513
S1130480617070E0C7010E94CC0140E06CE271E051
S1130490C8010E94B20141E06CE271E0CE010E9409
S11304A0B2012FEF83ED90E3215080409040E1F7BB
S11304B000C00000BFCF0E946F020C9457030E943B
S11304C0500358F00E94490340F029F45F3F29F09B
S11304D00C94400351110C948B030C9446030E941A
S11304E0680368F39923B1F3552391F3951B550BD6
S11304F0BB27AA2762177307840738F09F5F5F4FF3
S1130500220F331F441FAA1FA9F335D00E2E3AF031
S1130510E0E832D091505040E695001CCAF72BD049
S1130520FE2F29D0660F771F881FBB1F261737079A
S11305304807AB07B0E809F0BB0B802DBF01FF27CC
S113054093585F4F3AF09E3F510578F00C94400366
S11305500C948B035F3FE4F3983ED4F38695779530
S11305606795B795F7959F5FC9F7880F911D969585
S1130570879597F90895E1E0660F771F881FBB1FE1
S1130580621773078407BA0720F0621B730B840B8E
S1130590BA0BEE1F88F7E09508950E94D402689480
S11305A0B1110C948B0308950E94700388F09F5737
S11305B098F0B92F9927B751B0F0E1F0660F771F83
S11305C0881F991F1AF0BA95C9F714C0B13091F079
S11305D00E948A03B1E008950C948A03672F782F50
S11305E08827B85F39F0B93FCCF38695779567953E
S11305F0B395D9F73EF490958095709561957F4FAA
S11306008F4F9F4F0895E89409C097FB3EF490954F
S11306108095709561957F4F8F4F9F4F9923A9F0D7
S1130620F92F96E9BB279395F69587957795679566
S1130630B795F111F8CFFAF4BB0F11F460FF1BC0AA
S11306406F5F7F4F8F4F9F4F16C0882311F096E93D
S113065011C0772321F09EE8872F762F05C06623EB
S113066071F096E8862F70E060E02AF09A95660FA4
S1130670771F881FDAF7880F9695879597F908955D
S113068097F99F6780E870E060E008959FEF80EC41
S1130690089500240A9416161706180609060895E4
S11306A000240A9412161306140605060895092E4A
S11306B00394000C11F4882352F0BB0F40F4BF2BB9
S11306C011F460FF04C06F5F7F4F8F4F9F4F0895F9
S11306D057FD9058440F551F59F05F3F71F04795EF
S11306E0880F97FB991F61F09F3F79F087950895D4
S11306F0121613061406551FF2CF4695F1DF08C0F3
S1130700161617061806991FF1CF8695710561050F
S113071008940895E894BB2766277727CB0197F9B7
S113072008950E94A4030C9457030E94490338F0CF
S11307300E94500320F0952311F00C9440030C9474
S1130740460311240C948B030E94680370F3959F55
S1130750C1F3950F50E0551F629FF001729FBB27B4
S1130760F00DB11D639FAA27F00DB11DAA1F649F50
S11307706627B00DA11D661F829F2227B00DA11D03
S1130780621F739FB00DA11D621F839FA00D611D89
S1130790221F749F3327A00D611D231F849F600DAA
S11307A0211D822F762F6A2F11249F5750409AF0D3
S11307B0F1F088234AF0EE0FFF1FBB1F661F771F5F
S11307C0881F91505040A9F79E3F510580F00C942A
S11307D040030C948B035F3FE4F3983ED4F3869577
S11307E077956795B795F795E7959F5FC1F7FE2BCA
S11307F0880F911D9695879597F90895AEE0B0E01E
S1130800E4E0F4E00C94BF060D891E8986E08C8335
S11308101A8309838FEF9FE79E838D83AE01475E22
S11308205F4F6F89788DCE0101960E942004EF817D
S1130830F885E00FF11F10822E96E4E00C94DB069D
S1130840ABE0B0E0E6E2F4E00C94B1066C017B01AD
S11308508A01FC0117821682838181FFCCC1CE01FB
S113086001963C01F6019381F70193FD859193FF75
S113087081917F01882309F4BAC1853239F493FD4B
S1130880859193FF81917F01853229F4B60190E02F
S11308900E941706E7CF912C212C312CFFE1F31590
S11308A0D8F08B3279F038F4803279F08332A1F4C5
S11308B0232D20611DC08D3261F0803369F4232D16
S11308C0216016C0832D8260382EE32DE4603E2E15
S11308D02AC0F32DF8601DC037FC2DC020ED280F71
S11308E02A3040F08E32B9F436FC81C1232D2064C5
S11308F0322E19C036FE06C08AE0989E200D1124BF
S1130900922E11C0EAE02E9E200D1124222EF32DEA
S1130910F0623F2E08C08C3621F4832D8068382E77
S113092002C0883641F4F70193FD859193FF8191CC
S11309307F018111B3CF982F9F7D9554933028F474
S11309400C5F1F4F9FE399830DC0833631F08337CB
S113095071F0833509F059C021C0F8018081898381
S11309600E5F1F4F88248394912C530113C02801D8
S1130970F2E04F0E511CF801A080B18036FE03C096
S1130980692D70E002C06FEF7FEFC5010E940C0675
S11309904C018201F32DFF773F2E16C0280122E07F
S11309A0420E511CF801A080B18036FE03C0692DAF
S11309B070E002C06FEF7FEFC5010E9401064C0199
S11309C0F32DF0683F2E820133FC1BC0822D90E092
S11309D088169906B0F4B60180E290E00E941706EA
S11309E02A94F4CFF50137FC859137FE81915F019C
S11309F0B60190E00E94170621102A9421E0821A81
S1130A0091088114910471F7E8C0843611F0893695
S1130A1041F5F80137FE07C06081718182819381BD
S1130A200C5F1F4F08C060817181072E000C880B7A
S1130A30990B0E5F1F4FF32DFF763F2E97FF09C0D2
S1130A4090958095709561957F4F8F4F9F4FF0687B
S1130A503F2E2AE030E0A3010E945306882E861818
S1130A6045C0853731F4232D2F7EB22E2AE030E0A5
S1130A7025C0932D997FB92E8F36C1F018F488358F
S1130A8079F0B5C0803719F0883721F0B0C0E92F6C
S1130A90E061BE2EB4FE0DC0FB2DF460BF2E09C074
S1130AA034FE0AC0292F2660B22E06C028E030E0AA
S1130AB005C020E130E002C020E132E0F801B7FED9
S1130AC007C060817181828193810C5F1F4F06C0D2
S1130AD06081718180E090E00E5F1F4FA3010E944E
S1130AE05306882E8618FB2DFF773F2E36FE0DC049
S1130AF0232D2E7FA22E891458F434FE0BC032FC11
S1130B0009C0832D8E7EA82E05C0B82CA32C03C04B
S1130B10B82C01C0B92CA4FE0FC0FE01E80DF11DD4
S1130B208081803321F49A2D997EA92E09C0A2FEDA
S1130B3006C0B394B39404C08A2D867809F0B394A4
S1130B40A3FC11C0A0FE06C0B21488F4280C922C99
S1130B509B180EC0B21460F4B60180E290E00E94CB
S1130B601706B394F7CFB21418F42B1802C0982CBC
S1130B70212CA4FE10C0B60180E390E00E94170669
S1130B80A2FE17C0A1FC03C088E790E002C088E57C
S1130B9090E0B6010CC08A2D867859F0A1FE02C0FF
S1130BA08BE201C080E2A7FC8DE2B60190E00E94D6
S1130BB01706891438F4B60180E390E00E94170602
S1130BC09A94F7CF8A94F301E80DF11D8081B60160
S1130BD090E00E9417068110F5CF222009F442CE3E
S1130BE0B60180E290E00E9417062A94F6CFF6013F
S1130BF08681978102C08FEF9FEF2B96E2E10C94E0
S1130C00CD06FC010590615070400110D8F7809525
S1130C1090958E0F9F1F0895FC01615070400190C4
S1130C200110D8F7809590958E0F9F1F08950F930C
S1130C301F93CF93DF93FB01238121FD03C08FEF2B
S1130C409FEF2CC022FF16C0468157812481358135
S1130C504217530744F4A081B1819D012F5F3F4F98
S1130C60318320838C93268137812F5F3F4F3783D5
S1130C70268314C08B01EC01FB010084F185E02D77
S1130C800995892BE1F6D80116968D919C911797B9
S1130C90019617969C938E931697CE01DF91CF9170
S1130CA01F910F910895FA01AA27283051F120319C
S1130CB081F1E8946F936E7F6E5F7F4F8F4F9F4FEC
S1130CC0AF4FB1E03ED0B4E03CD0670F781F891F2E
S1130CD09A1FA11D680F791F8A1F911DA11D6A0FFC
S1130CE0711D811D911DA11D20D009F468943F91AF
S1130CF02AE0269F11243019305D3193DEF6CF01AE
S1130D000895462F4770405D4193B3E00FD0C9F773
S1130D10F6CF462F4F70405D4A3318F0495D31FDE0
S1130D204052419302D0A9F7EACFB4E0A695979533
S1130D30879577956795BA95C9F700976105710509
S1130D4008959B01AC010A2E069457954795379553
S1130D502795BA95C9F7620F731F841F951FA01DAD
S1130D6008952F923F924F925F926F927F928F924B
S1130D709F92AF92BF92CF92DF92EF92FF920F9326
S1130D801F93CF93DF93CDB7DEB7CA1BDB0B0FB630
S1130D90F894DEBF0FBECDBF09942A8839884888ED
S1130DA05F846E847D848C849B84AA84B984C88483
S1130DB0DF80EE80FD800C811B81AA81B981CE0F7A
S1130DC0D11D0FB6F894DEBF0FBECDBFED0108955F
S1070DD0F894FFCFC1
S1130DD42564004F4E20004F4646004D313A200012
S1090DE44D323A2000002C
S9030000FC
